{
  "contractName": "Lottery",
  "abi": [
    {
      "inputs": [],
      "stateMutability": "nonpayable",
      "type": "constructor"
    },
    {
      "anonymous": false,
      "inputs": [
        {
          "indexed": true,
          "internalType": "address",
          "name": "user",
          "type": "address"
        },
        {
          "indexed": false,
          "internalType": "uint256",
          "name": "tokenId",
          "type": "uint256"
        }
      ],
      "name": "Buy",
      "type": "event"
    },
    {
      "anonymous": false,
      "inputs": [
        {
          "indexed": true,
          "internalType": "address",
          "name": "user",
          "type": "address"
        },
        {
          "indexed": false,
          "internalType": "uint256",
          "name": "tokenid",
          "type": "uint256"
        },
        {
          "indexed": false,
          "internalType": "uint256",
          "name": "amount",
          "type": "uint256"
        }
      ],
      "name": "Claim",
      "type": "event"
    },
    {
      "anonymous": false,
      "inputs": [
        {
          "indexed": true,
          "internalType": "address",
          "name": "user",
          "type": "address"
        },
        {
          "indexed": false,
          "internalType": "uint256",
          "name": "amount",
          "type": "uint256"
        }
      ],
      "name": "DevWithdraw",
      "type": "event"
    },
    {
      "anonymous": false,
      "inputs": [
        {
          "indexed": true,
          "internalType": "uint256",
          "name": "issueIndex",
          "type": "uint256"
        },
        {
          "indexed": false,
          "internalType": "uint8[4]",
          "name": "winningNumbers",
          "type": "uint8[4]"
        }
      ],
      "name": "Drawing",
      "type": "event"
    },
    {
      "anonymous": false,
      "inputs": [
        {
          "indexed": true,
          "internalType": "address",
          "name": "user",
          "type": "address"
        },
        {
          "indexed": false,
          "internalType": "uint256",
          "name": "amount",
          "type": "uint256"
        }
      ],
      "name": "MultiBuy",
      "type": "event"
    },
    {
      "anonymous": false,
      "inputs": [
        {
          "indexed": true,
          "internalType": "address",
          "name": "user",
          "type": "address"
        },
        {
          "indexed": false,
          "internalType": "uint256",
          "name": "amount",
          "type": "uint256"
        }
      ],
      "name": "MultiClaim",
      "type": "event"
    },
    {
      "anonymous": false,
      "inputs": [
        {
          "indexed": true,
          "internalType": "address",
          "name": "previousOwner",
          "type": "address"
        },
        {
          "indexed": true,
          "internalType": "address",
          "name": "newOwner",
          "type": "address"
        }
      ],
      "name": "OwnershipTransferred",
      "type": "event"
    },
    {
      "anonymous": false,
      "inputs": [
        {
          "indexed": true,
          "internalType": "uint256",
          "name": "issueIndex",
          "type": "uint256"
        }
      ],
      "name": "Reset",
      "type": "event"
    },
    {
      "inputs": [],
      "name": "adminAddress",
      "outputs": [
        {
          "internalType": "address",
          "name": "",
          "type": "address"
        }
      ],
      "stateMutability": "view",
      "type": "function",
      "constant": true
    },
    {
      "inputs": [
        {
          "internalType": "uint256",
          "name": "",
          "type": "uint256"
        }
      ],
      "name": "allocation",
      "outputs": [
        {
          "internalType": "uint8",
          "name": "",
          "type": "uint8"
        }
      ],
      "stateMutability": "view",
      "type": "function",
      "constant": true
    },
    {
      "inputs": [],
      "name": "drawingPhase",
      "outputs": [
        {
          "internalType": "bool",
          "name": "",
          "type": "bool"
        }
      ],
      "stateMutability": "view",
      "type": "function",
      "constant": true
    },
    {
      "inputs": [
        {
          "internalType": "uint256",
          "name": "",
          "type": "uint256"
        },
        {
          "internalType": "uint256",
          "name": "",
          "type": "uint256"
        }
      ],
      "name": "historyAmount",
      "outputs": [
        {
          "internalType": "uint256",
          "name": "",
          "type": "uint256"
        }
      ],
      "stateMutability": "view",
      "type": "function",
      "constant": true
    },
    {
      "inputs": [
        {
          "internalType": "uint256",
          "name": "",
          "type": "uint256"
        },
        {
          "internalType": "uint256",
          "name": "",
          "type": "uint256"
        }
      ],
      "name": "historyNumbers",
      "outputs": [
        {
          "internalType": "uint8",
          "name": "",
          "type": "uint8"
        }
      ],
      "stateMutability": "view",
      "type": "function",
      "constant": true
    },
    {
      "inputs": [],
      "name": "issueIndex",
      "outputs": [
        {
          "internalType": "uint256",
          "name": "",
          "type": "uint256"
        }
      ],
      "stateMutability": "view",
      "type": "function",
      "constant": true
    },
    {
      "inputs": [],
      "name": "lastTimestamp",
      "outputs": [
        {
          "internalType": "uint256",
          "name": "",
          "type": "uint256"
        }
      ],
      "stateMutability": "view",
      "type": "function",
      "constant": true
    },
    {
      "inputs": [
        {
          "internalType": "uint256",
          "name": "",
          "type": "uint256"
        },
        {
          "internalType": "uint256",
          "name": "",
          "type": "uint256"
        }
      ],
      "name": "lotteryInfo",
      "outputs": [
        {
          "internalType": "uint256",
          "name": "",
          "type": "uint256"
        }
      ],
      "stateMutability": "view",
      "type": "function",
      "constant": true
    },
    {
      "inputs": [],
      "name": "lotteryNFT",
      "outputs": [
        {
          "internalType": "contract LotteryNFT",
          "name": "",
          "type": "address"
        }
      ],
      "stateMutability": "view",
      "type": "function",
      "constant": true
    },
    {
      "inputs": [],
      "name": "maxNumber",
      "outputs": [
        {
          "internalType": "uint8",
          "name": "",
          "type": "uint8"
        }
      ],
      "stateMutability": "view",
      "type": "function",
      "constant": true
    },
    {
      "inputs": [],
      "name": "minPrice",
      "outputs": [
        {
          "internalType": "uint256",
          "name": "",
          "type": "uint256"
        }
      ],
      "stateMutability": "view",
      "type": "function",
      "constant": true
    },
    {
      "inputs": [],
      "name": "mkat",
      "outputs": [
        {
          "internalType": "contract IERC20",
          "name": "",
          "type": "address"
        }
      ],
      "stateMutability": "view",
      "type": "function",
      "constant": true
    },
    {
      "inputs": [],
      "name": "owner",
      "outputs": [
        {
          "internalType": "address",
          "name": "",
          "type": "address"
        }
      ],
      "stateMutability": "view",
      "type": "function",
      "constant": true
    },
    {
      "inputs": [],
      "name": "renounceOwnership",
      "outputs": [],
      "stateMutability": "nonpayable",
      "type": "function"
    },
    {
      "inputs": [],
      "name": "totalAddresses",
      "outputs": [
        {
          "internalType": "uint256",
          "name": "",
          "type": "uint256"
        }
      ],
      "stateMutability": "view",
      "type": "function",
      "constant": true
    },
    {
      "inputs": [],
      "name": "totalAmount",
      "outputs": [
        {
          "internalType": "uint256",
          "name": "",
          "type": "uint256"
        }
      ],
      "stateMutability": "view",
      "type": "function",
      "constant": true
    },
    {
      "inputs": [
        {
          "internalType": "address",
          "name": "newOwner",
          "type": "address"
        }
      ],
      "name": "transferOwnership",
      "outputs": [],
      "stateMutability": "nonpayable",
      "type": "function"
    },
    {
      "inputs": [
        {
          "internalType": "uint256",
          "name": "",
          "type": "uint256"
        },
        {
          "internalType": "uint64",
          "name": "",
          "type": "uint64"
        }
      ],
      "name": "userBuyAmountSum",
      "outputs": [
        {
          "internalType": "uint256",
          "name": "",
          "type": "uint256"
        }
      ],
      "stateMutability": "view",
      "type": "function",
      "constant": true
    },
    {
      "inputs": [
        {
          "internalType": "address",
          "name": "",
          "type": "address"
        },
        {
          "internalType": "uint256",
          "name": "",
          "type": "uint256"
        }
      ],
      "name": "userInfo",
      "outputs": [
        {
          "internalType": "uint256",
          "name": "",
          "type": "uint256"
        }
      ],
      "stateMutability": "view",
      "type": "function",
      "constant": true
    },
    {
      "inputs": [
        {
          "internalType": "uint256",
          "name": "",
          "type": "uint256"
        }
      ],
      "name": "winningNumbers",
      "outputs": [
        {
          "internalType": "uint8",
          "name": "",
          "type": "uint8"
        }
      ],
      "stateMutability": "view",
      "type": "function",
      "constant": true
    },
    {
      "inputs": [
        {
          "internalType": "contract IERC20",
          "name": "_mkat",
          "type": "address"
        },
        {
          "internalType": "contract LotteryNFT",
          "name": "_lotteryNft",
          "type": "address"
        },
        {
          "internalType": "uint256",
          "name": "_minPrice",
          "type": "uint256"
        },
        {
          "internalType": "uint8",
          "name": "_maxNumber",
          "type": "uint8"
        },
        {
          "internalType": "address",
          "name": "_owner",
          "type": "address"
        },
        {
          "internalType": "address",
          "name": "_adminAddress",
          "type": "address"
        }
      ],
      "name": "initialize",
      "outputs": [],
      "stateMutability": "nonpayable",
      "type": "function"
    },
    {
      "inputs": [],
      "name": "drawed",
      "outputs": [
        {
          "internalType": "bool",
          "name": "",
          "type": "bool"
        }
      ],
      "stateMutability": "view",
      "type": "function",
      "constant": true
    },
    {
      "inputs": [],
      "name": "reset",
      "outputs": [],
      "stateMutability": "nonpayable",
      "type": "function"
    },
    {
      "inputs": [],
      "name": "enterDrawingPhase",
      "outputs": [],
      "stateMutability": "nonpayable",
      "type": "function"
    },
    {
      "inputs": [
        {
          "internalType": "uint256",
          "name": "_externalRandomNumber",
          "type": "uint256"
        }
      ],
      "name": "drawing",
      "outputs": [],
      "stateMutability": "nonpayable",
      "type": "function"
    },
    {
      "inputs": [
        {
          "internalType": "uint256",
          "name": "_price",
          "type": "uint256"
        },
        {
          "internalType": "uint8[4]",
          "name": "_numbers",
          "type": "uint8[4]"
        }
      ],
      "name": "buy",
      "outputs": [],
      "stateMutability": "nonpayable",
      "type": "function"
    },
    {
      "inputs": [
        {
          "internalType": "uint256",
          "name": "_price",
          "type": "uint256"
        },
        {
          "internalType": "uint8[4][]",
          "name": "_numbers",
          "type": "uint8[4][]"
        }
      ],
      "name": "multiBuy",
      "outputs": [],
      "stateMutability": "nonpayable",
      "type": "function"
    },
    {
      "inputs": [
        {
          "internalType": "uint256",
          "name": "_tokenId",
          "type": "uint256"
        }
      ],
      "name": "claimReward",
      "outputs": [],
      "stateMutability": "nonpayable",
      "type": "function"
    },
    {
      "inputs": [
        {
          "internalType": "uint256[]",
          "name": "_tickets",
          "type": "uint256[]"
        }
      ],
      "name": "multiClaim",
      "outputs": [],
      "stateMutability": "nonpayable",
      "type": "function"
    },
    {
      "inputs": [
        {
          "internalType": "uint8[4]",
          "name": "number",
          "type": "uint8[4]"
        }
      ],
      "name": "generateNumberIndexKey",
      "outputs": [
        {
          "internalType": "uint64[11]",
          "name": "",
          "type": "uint64[11]"
        }
      ],
      "stateMutability": "pure",
      "type": "function",
      "constant": true
    },
    {
      "inputs": [
        {
          "internalType": "uint256",
          "name": "_issueIndex",
          "type": "uint256"
        },
        {
          "internalType": "uint256",
          "name": "_matchingNumber",
          "type": "uint256"
        }
      ],
      "name": "getMatchingRewardAmount",
      "outputs": [
        {
          "internalType": "uint256",
          "name": "",
          "type": "uint256"
        }
      ],
      "stateMutability": "view",
      "type": "function",
      "constant": true
    },
    {
      "inputs": [
        {
          "internalType": "uint256",
          "name": "_issueIndex",
          "type": "uint256"
        }
      ],
      "name": "getTotalRewards",
      "outputs": [
        {
          "internalType": "uint256",
          "name": "",
          "type": "uint256"
        }
      ],
      "stateMutability": "view",
      "type": "function",
      "constant": true
    },
    {
      "inputs": [
        {
          "internalType": "uint256",
          "name": "_tokenId",
          "type": "uint256"
        }
      ],
      "name": "getRewardView",
      "outputs": [
        {
          "internalType": "uint256",
          "name": "",
          "type": "uint256"
        }
      ],
      "stateMutability": "view",
      "type": "function",
      "constant": true
    },
    {
      "inputs": [
        {
          "internalType": "address",
          "name": "_adminAddress",
          "type": "address"
        }
      ],
      "name": "setAdmin",
      "outputs": [],
      "stateMutability": "nonpayable",
      "type": "function"
    },
    {
      "inputs": [
        {
          "internalType": "contract LotteryNFT",
          "name": "_lotteryNFT",
          "type": "address"
        }
      ],
      "name": "setLotteryNFT",
      "outputs": [],
      "stateMutability": "nonpayable",
      "type": "function"
    },
    {
      "inputs": [
        {
          "internalType": "uint256",
          "name": "_amount",
          "type": "uint256"
        }
      ],
      "name": "adminWithdraw",
      "outputs": [],
      "stateMutability": "nonpayable",
      "type": "function"
    },
    {
      "inputs": [
        {
          "internalType": "uint256",
          "name": "_price",
          "type": "uint256"
        }
      ],
      "name": "setMinPrice",
      "outputs": [],
      "stateMutability": "nonpayable",
      "type": "function"
    },
    {
      "inputs": [
        {
          "internalType": "uint8",
          "name": "_maxNumber",
          "type": "uint8"
        }
      ],
      "name": "setMaxNumber",
      "outputs": [],
      "stateMutability": "nonpayable",
      "type": "function"
    },
    {
      "inputs": [
        {
          "internalType": "uint8",
          "name": "_allcation1",
          "type": "uint8"
        },
        {
          "internalType": "uint8",
          "name": "_allcation2",
          "type": "uint8"
        },
        {
          "internalType": "uint8",
          "name": "_allcation3",
          "type": "uint8"
        }
      ],
      "name": "setAllocation",
      "outputs": [],
      "stateMutability": "nonpayable",
      "type": "function"
    }
  ],
  "bytecode": "0x6000600b819055600c819055600d819055610100604052608081815260a082905260c082905260e0919091526200003b90601190600462000050565b503480156200004957600080fd5b5062000105565b600183019183908215620000d85791602002820160005b83821115620000a757835183826101000a81548160ff021916908360ff160217905550926020019260010160208160000104928301926001030262000067565b8015620000d65782816101000a81549060ff0219169055600101602081600001049283019260010302620000a7565b505b50620000e6929150620000ea565b5090565b5b80821115620000e657805460ff19168155600101620000eb565b6132fb80620001156000396000f3fe608060405234801561001057600080fd5b506004361061023d5760003560e01c80636575243f1161013b578063c39f49c0116100b8578063e13454161161007c578063e13454161461049b578063e45be8eb146104a3578063e8adfbc7146104ab578063f2fde38b146104b3578063fc6f9468146104c65761023d565b8063c39f49c014610452578063cfad527714610465578063d1f7dbcf1461046d578063d411b0fa14610480578063d826f88f146104935761023d565b8063850bad94116100ff578063850bad94146103f157806385dcdf1b146104045780638da5cb5b14610424578063a42206c91461042c578063ae169a501461043f5761023d565b80636575243f146103a85780636a28f828146103bb578063704b6c02146103c3578063715018a6146103d65780637c5b4a37146103de5761023d565b8063324a5562116101c9578063552164ee1161018d578063552164ee1461034957806357dc5d2e1461035c57806359bcbd681461036f5780635c17623a146103825780635ea8cd12146103955761023d565b8063324a5562146102e65780633a4f6999146102f9578063438209f51461030e5780634e45f095146103235780634ed73d28146103365761023d565b80631a39d8ef116102105780631a39d8ef1461029d5780631ff68866146102a557806321ce919d146102ad5780632bdff851146102c05780632f506b20146102d35761023d565b80630240966c1461024257806311e420651461026057806314c20d571461027557806319d8ac6114610288575b600080fd5b61024a6104ce565b6040516102579190612b9b565b60405180910390f35b61027361026e36600461291d565b6104dd565b005b610273610283366004612a6c565b610614565b6102906108f8565b6040516102579190613208565b6102906108fe565b610273610904565b6102906102bb3660046127b3565b610962565b6102736102ce3660046129c5565b610990565b6102906102e1366004612ab9565b610cd9565b6102736102f4366004612af3565b610cf6565b610301610d40565b604051610257919061321f565b610316610d50565b6040516102579190612cc4565b610301610331366004612995565b610d59565b6102736103443660046127de565b610d80565b610290610357366004612995565b61100c565b61027361036a36600461277b565b611080565b61030161037d366004612a98565b6110cc565b610273610390366004612b0f565b611102565b6102736103a3366004612995565b611162565b6102906103b6366004612a98565b611191565b6102906111aa565b6102736103d136600461277b565b6111b0565b6102736111fc565b6102736103ec366004612995565b611270565b6103016103ff366004612995565b6112f5565b610417610412366004612872565b611302565b6040516102579190612c5f565b61024a611489565b61027361043a366004612995565b611498565b61027361044d366004612995565b61171e565b610290610460366004612a98565b611934565b61029061194d565b61029061047b366004612a98565b611953565b61029061048e366004612995565b611985565b610273611c86565b610316611dc2565b610290611dcd565b61024a611dd3565b6102736104c136600461277b565b611de2565b61024a611e8d565b6002546001600160a01b031681565b600054600160a81b900460ff16806104f857506104f8611e9c565b8061050d5750600054600160a01b900460ff16155b6105325760405162461bcd60e51b815260040161052990612fef565b60405180910390fd5b600054600160a81b900460ff16158015610569576000805460ff60a01b1960ff60a81b19909116600160a81b1716600160a01b1790555b600280546001600160a01b03199081166001600160a01b038a81169190911790925560038054821689841617815560058890556004805460ff60a01b1916600160a01b60ff8a16021790921692851692909217905542600e55604080516060810182526032815260146020820152600a918101919091526105ed91600191906125a0565b506105f783611ead565b801561060b576000805460ff60a81b191690555b50505050505050565b61061c611dc2565b156106395760405162461bcd60e51b8152600401610529906130b5565b60105460ff161561065c5760405162461bcd60e51b815260040161052990612fb8565b60055482101561067e5760405162461bcd60e51b81526004016105299061303d565b60005b60048110156106d35760048054600160a01b900460ff16908390839081106106a557fe5b602002015160ff1611156106cb5760405162461bcd60e51b815260040161052990612d77565b600101610681565b50600354600b54604051620dce4760ea1b81526000926001600160a01b0316916337391c009161070b91339187918991600401612baf565b602060405180830381600087803b15801561072557600080fd5b505af1158015610739573d6000803e3d6000fd5b505050506040513d601f19601f8201168201806040525081019061075d91906129ad565b600b546000908152600760209081526040808320805460018101825590845282842001849055338352600a90915290205490915061079f57600c805460010190555b336000908152600a6020908152604082208054600181018255908352912001819055600d546107ce9084611ef8565b600d5542600e556107dd612633565b6107e683611302565b905060005b600b8110156108985761084f8560096000600b54815260200190815260200160002060008585600b811061081b57fe5b60200201516001600160401b03166001600160401b0316815260200190815260200160002054611ef890919063ffffffff16565b600b805460009081526009602052604081209185908590811061086e57fe5b602090810291909101516001600160401b03168252810191909152604001600020556001016107eb565b506002546108b1906001600160a01b0316333087611f24565b336001600160a01b03167fe3d4187f6ca4248660cc0ac8b8056515bac4a8132be2eca31d6d0cc170722a7e836040516108ea9190613208565b60405180910390a250505050565b600e5481565b600d5481565b6004546001600160a01b0316331461092e5760405162461bcd60e51b815260040161052990613121565b610936611dc2565b156109535760405162461bcd60e51b8152600401610529906131e8565b6010805460ff19166001179055565b600a602052816000526040600020818154811061097b57fe5b90600052602060002001600091509150505481565b610998611dc2565b156109b55760405162461bcd60e51b8152600401610529906130b5565b60105460ff16156109d85760405162461bcd60e51b815260040161052990612fb8565b6005548210156109fa5760405162461bcd60e51b81526004016105299061303d565b6000805b8251811015610c7a5760005b6004811015610aa557600460149054906101000a900460ff1660ff16848381518110610a3257fe5b60200260200101518260048110610a4557fe5b602002015160ff1611158015610a8157506000848381518110610a6457fe5b60200260200101518260048110610a7757fe5b602002015160ff16115b610a9d5760405162461bcd60e51b815260040161052990612d77565b600101610a0a565b5060035483516000916001600160a01b0316906337391c00903390879086908110610acc57fe5b602002602001015188600b546040518563ffffffff1660e01b8152600401610af79493929190612baf565b602060405180830381600087803b158015610b1157600080fd5b505af1158015610b25573d6000803e3d6000fd5b505050506040513d601f19601f82011682018060405250810190610b4991906129ad565b600b546000908152600760209081526040808320805460018101825590845282842001849055338352600a909152902054909150610b8b57600c805460010190555b336000908152600a6020908152604082208054600181018255908352912001819055600d54610bba9086611ef8565b600d5542600e55610bcb8386611ef8565b9250610bd5612633565b610bf1858481518110610be457fe5b6020026020010151611302565b905060005b600b811015610c6f57610c268760096000600b54815260200190815260200160002060008585600b811061081b57fe5b600b8054600090815260096020526040812091859085908110610c4557fe5b602090810291909101516001600160401b0316825281019190915260400160002055600101610bf6565b5050506001016109fe565b50600254610c93906001600160a01b0316333084611f24565b336001600160a01b03167f96c35ad1cc1743f26cb87980c38042de8082358ec6d171a7986d6e11dddfe85782604051610ccc9190613208565b60405180910390a2505050565b600960209081526000928352604080842090915290825290205481565b6004546001600160a01b03163314610d205760405162461bcd60e51b815260040161052990613121565b6004805460ff909216600160a01b0260ff60a01b19909216919091179055565b600454600160a01b900460ff1681565b60105460ff1681565b600f8160048110610d6657fe5b60209182820401919006915054906101000a900460ff1681565b6000805b8251811015610f445760035483516001600160a01b0390911690636352211e90859084908110610db057fe5b60200260200101516040518263ffffffff1660e01b8152600401610dd49190613208565b60206040518083038186803b158015610dec57600080fd5b505afa158015610e00573d6000803e3d6000fd5b505050506040513d601f19601f82011682018060405250810190610e249190612797565b6001600160a01b0316336001600160a01b031614610e545760405162461bcd60e51b815260040161052990612f01565b60035483516001600160a01b03909116906336dbd2f990859084908110610e7757fe5b60200260200101516040518263ffffffff1660e01b8152600401610e9b9190613208565b60206040518083038186803b158015610eb357600080fd5b505afa158015610ec7573d6000803e3d6000fd5b505050506040513d601f19601f82011682018060405250810190610eeb91906128fd565b15610f085760405162461bcd60e51b815260040161052990612f97565b6000610f26848381518110610f1957fe5b6020026020010151611985565b90508015610f3b57610f388184611ef8565b92505b50600101610d84565b50600354604051637431035560e01b81526001600160a01b0390911690637431035590610f75908590600401612c1b565b600060405180830381600087803b158015610f8f57600080fd5b505af1158015610fa3573d6000803e3d6000fd5b505050506000811115610fc757600254610fc7906001600160a01b03163383611f7c565b336001600160a01b03167f6606374655494f5c0e2d6f392656e9777afd9ac5f61527d1bcad50b7e918a03e826040516110009190613208565b60405180910390a25050565b6000600b548211156110305760405162461bcd60e51b815260040161052990612da4565b611038611dc2565b1580156110465750600b5482145b156110545750600d5461107b565b6000828152600860205260408120805490919061106d57fe5b906000526020600020015490505b919050565b6000546001600160a01b031633146110aa5760405162461bcd60e51b8152600401610529906130ec565b600380546001600160a01b0319166001600160a01b0392909216919091179055565b600660205281600052604060002081600481106110e557fe5b602081049091015460ff601f9092166101000a9004169150829050565b6004546001600160a01b0316331461112c5760405162461bcd60e51b815260040161052990613121565b6040805160608101825260ff8086168252848116602083015283169181019190915261115c9060019060036125a0565b50505050565b6004546001600160a01b0316331461118c5760405162461bcd60e51b815260040161052990613121565b600555565b6007602052816000526040600020818154811061097b57fe5b600b5481565b6000546001600160a01b031633146111da5760405162461bcd60e51b8152600401610529906130ec565b600480546001600160a01b0319166001600160a01b0392909216919091179055565b6000546001600160a01b031633146112265760405162461bcd60e51b8152600401610529906130ec565b600080546040516001600160a01b03909116907f8be0079c531659141344cd1fd0a4f28419497f9722a3daafe3b4186f6b6457e0908390a3600080546001600160a01b0319169055565b6004546001600160a01b0316331461129a5760405162461bcd60e51b815260040161052990613121565b6002546112b1906001600160a01b03163383611f7c565b336001600160a01b03167f050d1c64cc22ce461b9bc14f6b73852566da02b03c155242bc63169d1fec42aa826040516112ea9190613208565b60405180910390a250565b60018160038110610d6657fe5b61130a612633565b611312612652565b825160ff908116825260208085015182169083015260408085015182169083015260608085015190911690820152611348612633565b6060828101805160408086018051602080890180518a516201000094850264010000000092830266010000000000009092029190910101909601650100020003009081016001600160401b039081168b52855183518d51908702908a02010163010002009081018216948c0194909452885183518d51908702908a02010163010003009081018216978c0197909752885186518d51908702908a020101630200030090810182169a8c019a909a5288518651845190870299029890980190970101861660808a015280518a51840201610100908101871660a08b015284518b5185020161020001871660c08b015287519a518402909a0161030001861660e08a015283518151840201909101851698880198909852845197518102909701909101821661012086015291519151909402010190911661014082015292915050565b6000546001600160a01b031690565b6004546001600160a01b031633146114c25760405162461bcd60e51b815260040161052990613121565b6114ca611dc2565b156114e75760405162461bcd60e51b815260040161052990612d33565b60105460ff166115095760405162461bcd60e51b815260040161052990612f60565b6004546000908190600160a01b900460ff16436000190140825b600a81101561154057611537600b5461100c565b50600101611523565b5060005a905081600c54828860405160200161155f9493929190612ce5565b60408051601f19818403018152908290528051602091820120600f805460ff191687830660010160ff811691909117909155600d5491985096506115a992859285918b9101612ce5565b60408051601f19818403018152908290528051602091820120600f805460ff8884066001019081166101000261ff001990921691909117909155600e5491985096506115fb92859285918b9101612ce5565b60408051808303601f19018152908290528051602091820120600f805460ff600189850601908116620100000262ff00001990921691909117909155909750955061164c91849184918a9101612ccf565b60408051808303601f190181529181528151602092830120600f805460ff60018985060190811663010000000263ff00000019909216919091178255600b5460009081526006909552929093209097509095506116aa916004612670565b506116b3611fa0565b600b5460009081526008602052604090206116cf9160046126a3565b506010805460ff19169055600b546040517fa13e935b188993737b3009d62bd916dcbe9e82d8236d75981eeadf26a1460d3d9061170e90600f90612c91565b60405180910390a2505050505050565b6003546040516331a9108f60e11b81526001600160a01b0390911690636352211e9061174e908490600401613208565b60206040518083038186803b15801561176657600080fd5b505afa15801561177a573d6000803e3d6000fd5b505050506040513d601f19601f8201168201806040525081019061179e9190612797565b6001600160a01b0316336001600160a01b0316146117ce5760405162461bcd60e51b815260040161052990612f01565b6003546040516336dbd2f960e01b81526001600160a01b03909116906336dbd2f9906117fe908490600401613208565b60206040518083038186803b15801561181657600080fd5b505afa15801561182a573d6000803e3d6000fd5b505050506040513d601f19601f8201168201806040525081019061184e91906128fd565b1561186b5760405162461bcd60e51b815260040161052990612f97565b600061187682611985565b600354604051630ae169a560e41b81529192506001600160a01b03169063ae169a50906118a7908590600401613208565b600060405180830381600087803b1580156118c157600080fd5b505af11580156118d5573d6000803e3d6000fd5b5050505060008111156118f9576002546118f9906001600160a01b03163383611f7c565b336001600160a01b03167f34fcbac0073d7c3d388e51312faf357774904998eeb8fca628b9e6f65ee1cbf78383604051611000929190613211565b6008602052816000526040600020818154811061097b57fe5b600c5481565b60008281526008602052604081208054600584900390811061197157fe5b906000526020600020015490505b92915050565b600354604051631bf1e00f60e01b815260009182916001600160a01b0390911690631bf1e00f906119ba908690600401613208565b60206040518083038186803b1580156119d257600080fd5b505afa1580156119e6573d6000803e3d6000fd5b505050506040513d601f19601f82011682018060405250810190611a0a91906129ad565b9050611a14612652565b600354604051635f8e26a760e01b81526001600160a01b0390911690635f8e26a790611a44908790600401613208565b60806040518083038186803b158015611a5c57600080fd5b505afa158015611a70573d6000803e3d6000fd5b505050506040513d601f19601f82011682018060405250810190611a94919061288d565b9050611a9e612652565b600083815260066020526040808220815160808101928390529290916004918390855b825461010083900a900460ff16815260206001928301818104948501949093039092029101808411611ac15790505050505050905080600060048110611b0357fe5b602002015160ff16611b275760405162461bcd60e51b815260040161052990612d53565b6000805b6004811015611b7157838160048110611b4057fe5b602002015160ff16838260048110611b5457fe5b602002015160ff161415611b69578160010191505b600101611b2b565b5060006001821115611c6c57600354604051637bd0606560e11b81526000916001600160a01b03169063f7a0c0ca90611bae908b90600401613208565b60206040518083038186803b158015611bc657600080fd5b505afa158015611bda573d6000803e3d6000fd5b505050506040513d601f19601f82011682018060405250810190611bfe91906129ad565b90506000611c456064611c3f60018760040360038110611c1a57fe5b602081049091015460ff601f9092166101000a900416611c398b61100c565b90612205565b9061223f565b9050611c6781611c39611c588a88611953565b611c3f8664e8d4a51000612205565b925050505b611c7b8164e8d4a5100061223f565b979650505050505050565b6004546001600160a01b03163314611cb05760405162461bcd60e51b815260040161052990613121565b611cb8611dc2565b611cd45760405162461bcd60e51b81526004016105299061317d565b42600e556000600c819055600d55600f805463ffffffff191690556010805460ff19169055600b805460018101909155611d0f906004611953565b611d9457600154600b54600091611d3a91606491611c3f9160ff90911690611c39906000190161100c565b604080516080810191829052919250611d92918391601190600490826000855b825461010083900a900460ff16815260206001928301818104948501949093039092029101808411611d5a5790505050505050612271565b505b600b546040517f01c3cbb0d62726ab09d163873ebf9aed99dd8dc08e57bc938f458132fd178cf690600090a2565b600f5460ff16151590565b60055481565b6003546001600160a01b031681565b6000546001600160a01b03163314611e0c5760405162461bcd60e51b8152600401610529906130ec565b6001600160a01b038116611e325760405162461bcd60e51b815260040161052990612ddb565b600080546040516001600160a01b03808516939216917f8be0079c531659141344cd1fd0a4f28419497f9722a3daafe3b4186f6b6457e091a3600080546001600160a01b0319166001600160a01b0392909216919091179055565b6004546001600160a01b031681565b6000611ea7306123e2565b15905090565b600080546001600160a01b0319166001600160a01b03831690811782556040519091907f8be0079c531659141344cd1fd0a4f28419497f9722a3daafe3b4186f6b6457e0908290a350565b600082820183811015611f1d5760405162461bcd60e51b815260040161052990612e21565b9392505050565b61115c846323b872dd60e01b858585604051602401611f4593929190612bde565b60408051601f198184030181529190526020810180516001600160e01b03166001600160e01b0319909316929092179091526123e8565b611f9b8363a9059cbb60e01b8484604051602401611f45929190612c02565b505050565b611fa8612652565b611fb0612633565b60408051608081019182905261200391600f90600490826000855b825461010083900a900460ff16815260206001928301818104948501949093039092029101808411611fcb5790505050505050611302565b600b54600081815260096020818152604080842086516001600160401b03908116865281845282862054878752858552888501519091168652818452918520549585529290915293945061208a918560025b60200201516001600160401b03166001600160401b031681526020019081526020016000205482611ef890919063ffffffff16565b600b5460009081526009602052604081209192506120ab9190856003612055565b600b5460009081526009602052604081209192506120cc9190856004612055565b905060006120e56120de846004612205565b8390612477565b600b54600081815260096020818152604080842060a08b01516001600160401b0316855280835290842054948452919052929350909161212791876006612055565b600b5460009081526009602052604081209192506121489190876007612055565b600b5460009081526009602052604081209192506121699190876008612055565b600b546000908152600960208190526040822092935061218c9291908890612055565b600b5460009081526009602052604081209192506121ad919087600a612055565b905060006121da6121bf856003612205565b6121d46121cd886006612205565b8590611ef8565b90612477565b60408051608081018252600d5481526020810197909752860193909352505060608301525091505090565b6000826122145750600061197f565b8282028284828161222157fe5b0414611f1d5760405162461bcd60e51b815260040161052990613074565b60008082116122605760405162461bcd60e51b815260040161052990612f29565b81838161226957fe5b049392505050565b612279611dc2565b156122965760405162461bcd60e51b8152600401610529906130b5565b60005b60048110156122eb5760048054600160a01b900460ff16908390839081106122bd57fe5b602002015160ff1611156122e35760405162461bcd60e51b815260040161052990612e58565b600101612299565b50600354600b54604051620dce4760ea1b81526000926001600160a01b0316916337391c009161232391309187918991600401612baf565b602060405180830381600087803b15801561233d57600080fd5b505af1158015612351573d6000803e3d6000fd5b505050506040513d601f19601f8201168201806040525081019061237591906129ad565b600b54600090815260076020908152604082208054600181018255908352912001819055600d549091506123a99084611ef8565b600d5542600e5560405130907fe3d4187f6ca4248660cc0ac8b8056515bac4a8132be2eca31d6d0cc170722a7e90610ccc908490613208565b3b151590565b606061243d826040518060400160405280602081526020017f5361666545524332303a206c6f772d6c6576656c2063616c6c206661696c6564815250856001600160a01b031661249f9092919063ffffffff16565b805190915015611f9b578080602001905181019061245b91906128fd565b611f9b5760405162461bcd60e51b81526004016105299061319e565b6000828211156124995760405162461bcd60e51b815260040161052990612e84565b50900390565b60606124ae84846000856124b6565b949350505050565b6060824710156124d85760405162461bcd60e51b815260040161052990612ebb565b6124e1856123e2565b6124fd5760405162461bcd60e51b815260040161052990613146565b60006060866001600160a01b0316858760405161251a9190612b7f565b60006040518083038185875af1925050503d8060008114612557576040519150601f19603f3d011682016040523d82523d6000602084013e61255c565b606091505b5091509150611c7b82828660608315612576575081611f1d565b8251156125865782518084602001fd5b8160405162461bcd60e51b81526004016105299190612d00565b6001830191839082156126235791602002820160005b838211156125f457835183826101000a81548160ff021916908360ff16021790555092602001926001016020816000010492830192600103026125b6565b80156126215782816101000a81549060ff02191690556001016020816000010492830192600103026125f4565b505b5061262f9291506126ea565b5090565b604051806101600160405280600b906020820280368337509192915050565b60405180608001604052806004906020820280368337509192915050565b6001830191839082156126235791601f016020900482015b82811115612623578254825591600101919060010190612688565b8280548282559060005260206000209081019282156126de579160200282015b828111156126de5782518255916020019190600101906126c3565b5061262f929150612703565b5b8082111561262f57805460ff191681556001016126eb565b5b8082111561262f5760008155600101612704565b600082601f830112612728578081fd5b612732608061322d565b905080828460808501111561274657600080fd5b60005b600481101561277257813561275d816132b6565b83526020928301929190910190600101612749565b50505092915050565b60006020828403121561278c578081fd5b8135611f1d8161329e565b6000602082840312156127a8578081fd5b8151611f1d8161329e565b600080604083850312156127c5578081fd5b82356127d08161329e565b946020939093013593505050565b600060208083850312156127f0578182fd5b82356001600160401b03811115612805578283fd5b8301601f81018513612815578283fd5b803561282861282382613253565b61322d565b8181528381019083850185840285018601891015612844578687fd5b8694505b83851015612866578035835260019490940193918501918501612848565b50979650505050505050565b600060808284031215612883578081fd5b611f1d8383612718565b60006080828403121561289e578081fd5b82601f8301126128ac578081fd5b6128b6608061322d565b8083856080860111156128c7578384fd5b835b60048110156128f25781516128dd816132b6565b845260209384019391909101906001016128c9565b509095945050505050565b60006020828403121561290e578081fd5b81518015158114611f1d578182fd5b60008060008060008060c08789031215612935578182fd5b86356129408161329e565b955060208701356129508161329e565b9450604087013593506060870135612967816132b6565b925060808701356129778161329e565b915060a08701356129878161329e565b809150509295509295509295565b6000602082840312156129a6578081fd5b5035919050565b6000602082840312156129be578081fd5b5051919050565b600080604083850312156129d7578182fd5b823591506020808401356001600160401b038111156129f4578283fd5b8401601f81018613612a04578283fd5b8035612a1261282382613253565b818152838101908385016080808502860187018b1015612a30578788fd5b8795505b84861015612a5c57612a468b83612718565b8452600195909501949286019290810190612a34565b5096999098509650505050505050565b60008060a08385031215612a7e578182fd5b82359150612a8f8460208501612718565b90509250929050565b60008060408385031215612aaa578182fd5b50508035926020909101359150565b60008060408385031215612acb578182fd5b8235915060208301356001600160401b0381168114612ae8578182fd5b809150509250929050565b600060208284031215612b04578081fd5b8135611f1d816132b6565b600080600060608486031215612b23578081fd5b8335612b2e816132b6565b92506020840135612b3e816132b6565b91506040840135612b4e816132b6565b809150509250925092565b8060005b600481101561115c57815160ff16845260209384019390910190600101612b5d565b60008251612b91818460208701613272565b9190910192915050565b6001600160a01b0391909116815260200190565b6001600160a01b038516815260e08101612bcc6020830186612b59565b60a082019390935260c0015292915050565b6001600160a01b039384168152919092166020820152604081019190915260600190565b6001600160a01b03929092168252602082015260400190565b6020808252825182820181905260009190848201906040850190845b81811015612c5357835183529284019291840191600101612c37565b50909695505050505050565b6101608101818360005b600b8110156127725781516001600160401b0316835260209283019290910190600101612c69565b905460ff8082168352600882901c81166020840152601082901c8116604084015260189190911c16606082015260800190565b901515815260200190565b9283526020830191909152604082015260600190565b93845260208401929092526040830152606082015260800190565b6000602082528251806020840152612d1f816040850160208701613272565b601f01601f19169190910160400192915050565b60208082526006908201526572657365743f60d01b604082015260600190565b6020808252600a90820152691b9bdd08191c985dd95960b21b604082015260600190565b602080825260139082015272657863656564206e756d6265722073636f706560681b604082015260600190565b60208082526019908201527f5f6973737565496e646578203c3d206973737565496e64657800000000000000604082015260600190565b60208082526026908201527f4f776e61626c653a206e6577206f776e657220697320746865207a65726f206160408201526564647265737360d01b606082015260800190565b6020808252601b908201527f536166654d6174683a206164646974696f6e206f766572666c6f770000000000604082015260600190565b60208082526012908201527165786365656420746865206d6178696d756d60701b604082015260600190565b6020808252601e908201527f536166654d6174683a207375627472616374696f6e206f766572666c6f770000604082015260600190565b60208082526026908201527f416464726573733a20696e73756666696369656e742062616c616e636520666f6040820152651c8818d85b1b60d21b606082015260800190565b6020808252600e908201526d3737ba10333937b69037bbb732b960911b604082015260600190565b6020808252601a908201527f536166654d6174683a206469766973696f6e206279207a65726f000000000000604082015260600190565b60208082526019908201527f656e7465722064726177696e6720706861736520666972737400000000000000604082015260600190565b60208082526007908201526618db185a5b595960ca1b604082015260600190565b60208082526018908201527f64726177696e672c2063616e206e6f7420627579206e6f770000000000000000604082015260600190565b6020808252602e908201527f496e697469616c697a61626c653a20636f6e747261637420697320616c72656160408201526d191e481a5b9a5d1a585b1a5e995960921b606082015260800190565b60208082526019908201527f7072696365206d7573742061626f7665206d696e507269636500000000000000604082015260600190565b60208082526021908201527f536166654d6174683a206d756c7469706c69636174696f6e206f766572666c6f6040820152607760f81b606082015260800190565b60208082526017908201527f6472617765642c2063616e206e6f7420627579206e6f77000000000000000000604082015260600190565b6020808252818101527f4f776e61626c653a2063616c6c6572206973206e6f7420746865206f776e6572604082015260600190565b6020808252600b908201526a61646d696e3a207775743f60a81b604082015260600190565b6020808252601d908201527f416464726573733a2063616c6c20746f206e6f6e2d636f6e7472616374000000604082015260600190565b6020808252600790820152666472617765643f60c81b604082015260600190565b6020808252602a908201527f5361666545524332303a204552433230206f7065726174696f6e20646964206e6040820152691bdd081cdd58d8d9595960b21b606082015260800190565b602080825260069082015265191c985dd95960d21b604082015260600190565b90815260200190565b918252602082015260400190565b60ff91909116815260200190565b6040518181016001600160401b038111828210171561324b57600080fd5b604052919050565b60006001600160401b03821115613268578081fd5b5060209081020190565b60005b8381101561328d578181015183820152602001613275565b8381111561115c5750506000910152565b6001600160a01b03811681146132b357600080fd5b50565b60ff811681146132b357600080fdfea264697066735822122038f63e7fd14f381936d6f3572fb9babd4a8ab6efe25f4d2ce9546218e12b419364736f6c634300060c0033",
  "immutableReferences": {},
  "source": "//SPDX-License-Identifier: MIT\npragma solidity 0.6.12;\npragma experimental ABIEncoderV2;\n\nimport \"./LotteryNFT.sol\";\nimport \"./LotteryOwnable.sol\";\nimport \"@openzeppelin/contracts/token/ERC20/IERC20.sol\";\nimport \"@openzeppelin/contracts/token/ERC20/SafeERC20.sol\";\nimport \"@openzeppelin/contracts/math/SafeMath.sol\";\nimport \"@openzeppelin/contracts/proxy/Initializable.sol\";\n\n// import \"@nomiclabs/buidler/console.sol\";\n\n// 4 numbers\ncontract Lottery is LotteryOwnable, Initializable {\n    using SafeMath for uint256;\n    using SafeMath for uint8;\n    using SafeERC20 for IERC20;\n\n    uint8 constant keyLengthForEachBuy = 11;\n    // Allocation for first/sencond/third reward\n    uint8[3] public allocation;\n    // The TOKEN to buy lottery\n    IERC20 public mkat;\n    // The Lottery NFT for tickets\n    LotteryNFT public lotteryNFT;\n    // adminAddress\n    address public adminAddress;\n    // maxNumber\n    uint8 public maxNumber;\n    // minPrice, if decimal is not 18, please reset it\n    uint256 public minPrice;\n\n    // =================================\n\n    // issueId => winningNumbers[numbers]\n    mapping (uint256 => uint8[4]) public historyNumbers;\n    // issueId => [tokenId]\n    mapping (uint256 => uint256[]) public lotteryInfo;\n    // issueId => [totalAmount, firstMatchAmount, secondMatchingAmount, thirdMatchingAmount]\n    mapping (uint256 => uint256[]) public historyAmount;\n    // issueId => trickyNumber => buyAmountSum\n    mapping (uint256 => mapping(uint64 => uint256)) public userBuyAmountSum;\n    // address => [tokenId]\n    mapping (address => uint256[]) public userInfo;\n\n    uint256 public issueIndex = 0;\n    uint256 public totalAddresses = 0;\n    uint256 public totalAmount = 0;\n    uint256 public lastTimestamp;\n\n    uint8[4] public winningNumbers;\n\n    // default false\n    bool public drawingPhase;\n\n    // =================================\n\n    event Buy(address indexed user, uint256 tokenId);\n    event Drawing(uint256 indexed issueIndex, uint8[4] winningNumbers);\n    event Claim(address indexed user, uint256 tokenid, uint256 amount);\n    event DevWithdraw(address indexed user, uint256 amount);\n    event Reset(uint256 indexed issueIndex);\n    event MultiClaim(address indexed user, uint256 amount);\n    event MultiBuy(address indexed user, uint256 amount);\n\n    constructor() public {\n    }\n\n    function initialize(\n        IERC20 _mkat,\n        LotteryNFT _lotteryNft,\n        uint256 _minPrice,\n        uint8 _maxNumber,\n        address _owner,\n        address _adminAddress\n    ) public initializer {\n        mkat = _mkat;\n        lotteryNFT = _lotteryNft;\n        minPrice = _minPrice;\n        maxNumber = _maxNumber;\n        adminAddress = _adminAddress;\n        lastTimestamp = block.timestamp;\n        allocation = [50, 20, 10];\n        initOwner(_owner);\n    }\n\n    uint8[4] private nullTicket = [0,0,0,0];\n\n    modifier onlyAdmin() {\n        require(msg.sender == adminAddress, \"admin: wut?\");\n        _;\n    }\n\n    function drawed() public view returns(bool) {\n        return winningNumbers[0] != 0;\n    }\n\n    function reset() external onlyAdmin {\n        require(drawed(), \"drawed?\");\n        lastTimestamp = block.timestamp;\n        totalAddresses = 0;\n        totalAmount = 0;\n        winningNumbers[0]=0;\n        winningNumbers[1]=0;\n        winningNumbers[2]=0;\n        winningNumbers[3]=0;\n        drawingPhase = false;\n        issueIndex = issueIndex +1;\n        if(getMatchingRewardAmount(issueIndex-1, 4) == 0) {\n            uint256 amount = getTotalRewards(issueIndex-1).mul(allocation[0]).div(100);\n            internalBuy(amount, nullTicket);\n        }\n        emit Reset(issueIndex);\n    }\n\n    function enterDrawingPhase() external onlyAdmin {\n        require(!drawed(), 'drawed');\n        drawingPhase = true;\n    }\n\n    // add externalRandomNumber to prevent node validators exploiting\n    function drawing(uint256 _externalRandomNumber) external onlyAdmin {\n        require(!drawed(), \"reset?\");\n        require(drawingPhase, \"enter drawing phase first\");\n        bytes32 _structHash;\n        uint256 _randomNumber;\n        uint8 _maxNumber = maxNumber;\n        bytes32 _blockhash = blockhash(block.number-1);\n\n        // waste some gas fee here\n        for (uint i = 0; i < 10; i++) {\n            getTotalRewards(issueIndex);\n        }\n        uint256 _gasleft = gasleft();\n\n        // 1\n        _structHash = keccak256(\n            abi.encode(\n                _blockhash,\n                totalAddresses,\n                _gasleft,\n                _externalRandomNumber\n            )\n        );\n        _randomNumber  = uint256(_structHash);\n        assembly {_randomNumber := add(mod(_randomNumber, _maxNumber),1)}\n        winningNumbers[0]=uint8(_randomNumber);\n\n        // 2\n        _structHash = keccak256(\n            abi.encode(\n                _blockhash,\n                totalAmount,\n                _gasleft,\n                _externalRandomNumber\n            )\n        );\n        _randomNumber  = uint256(_structHash);\n        assembly {_randomNumber := add(mod(_randomNumber, _maxNumber),1)}\n        winningNumbers[1]=uint8(_randomNumber);\n\n        // 3\n        _structHash = keccak256(\n            abi.encode(\n                _blockhash,\n                lastTimestamp,\n                _gasleft,\n                _externalRandomNumber\n            )\n        );\n        _randomNumber  = uint256(_structHash);\n        assembly {_randomNumber := add(mod(_randomNumber, _maxNumber),1)}\n        winningNumbers[2]=uint8(_randomNumber);\n\n        // 4\n        _structHash = keccak256(\n            abi.encode(\n                _blockhash,\n                _gasleft,\n                _externalRandomNumber\n            )\n        );\n        _randomNumber  = uint256(_structHash);\n        assembly {_randomNumber := add(mod(_randomNumber, _maxNumber),1)}\n        winningNumbers[3]=uint8(_randomNumber);\n\n        historyNumbers[issueIndex] = winningNumbers;\n        historyAmount[issueIndex] = calculateMatchingRewardAmount();\n        drawingPhase = false;\n        emit Drawing(issueIndex, winningNumbers);\n    }\n\n    function internalBuy(uint256 _price, uint8[4] memory _numbers) internal {\n        require (!drawed(), 'drawed, can not buy now');\n        for (uint i = 0; i < 4; i++) {\n            require (_numbers[i] <= maxNumber, 'exceed the maximum');\n        }\n        uint256 tokenId = lotteryNFT.newLotteryItem(address(this), _numbers, _price, issueIndex);\n        lotteryInfo[issueIndex].push(tokenId);\n        totalAmount = totalAmount.add(_price);\n        lastTimestamp = block.timestamp;\n        emit Buy(address(this), tokenId);\n\n    }\n\n    function buy(uint256 _price, uint8[4] memory _numbers) external {\n        require(!drawed(), 'drawed, can not buy now');\n        require(!drawingPhase, 'drawing, can not buy now');\n        require (_price >= minPrice, 'price must above minPrice');\n        for (uint i = 0; i < 4; i++) {\n            require (_numbers[i] <= maxNumber, 'exceed number scope');\n        }\n        uint256 tokenId = lotteryNFT.newLotteryItem(msg.sender, _numbers, _price, issueIndex);\n        lotteryInfo[issueIndex].push(tokenId);\n        if (userInfo[msg.sender].length == 0) {\n            totalAddresses = totalAddresses + 1;\n        }\n        userInfo[msg.sender].push(tokenId);\n        totalAmount = totalAmount.add(_price);\n        lastTimestamp = block.timestamp;\n        uint64[keyLengthForEachBuy] memory userNumberIndex = generateNumberIndexKey(_numbers);\n        for (uint i = 0; i < keyLengthForEachBuy; i++) {\n            userBuyAmountSum[issueIndex][userNumberIndex[i]]=userBuyAmountSum[issueIndex][userNumberIndex[i]].add(_price);\n        }\n        mkat.safeTransferFrom(address(msg.sender), address(this), _price);\n        emit Buy(msg.sender, tokenId);\n    }\n\n    function  multiBuy(uint256 _price, uint8[4][] memory _numbers) external {\n        require (!drawed(), 'drawed, can not buy now');\n        require(!drawingPhase, 'drawing, can not buy now');\n        require (_price >= minPrice, 'price must above minPrice');\n        uint256 totalPrice  = 0;\n        for (uint i = 0; i < _numbers.length; i++) {\n            for (uint j = 0; j < 4; j++) {\n                require (_numbers[i][j] <= maxNumber && _numbers[i][j] > 0, 'exceed number scope');\n            }\n            uint256 tokenId = lotteryNFT.newLotteryItem(msg.sender, _numbers[i], _price, issueIndex);\n            lotteryInfo[issueIndex].push(tokenId);\n            if (userInfo[msg.sender].length == 0) {\n                totalAddresses = totalAddresses + 1;\n            }\n            userInfo[msg.sender].push(tokenId);\n            totalAmount = totalAmount.add(_price);\n            lastTimestamp = block.timestamp;\n            totalPrice = totalPrice.add(_price);\n            uint64[keyLengthForEachBuy] memory numberIndexKey = generateNumberIndexKey(_numbers[i]);\n            for (uint k = 0; k < keyLengthForEachBuy; k++) {\n                userBuyAmountSum[issueIndex][numberIndexKey[k]]=userBuyAmountSum[issueIndex][numberIndexKey[k]].add(_price);\n            }\n        }\n        mkat.safeTransferFrom(address(msg.sender), address(this), totalPrice);\n        emit MultiBuy(msg.sender, totalPrice);\n    }\n\n    function claimReward(uint256 _tokenId) external {\n        require(msg.sender == lotteryNFT.ownerOf(_tokenId), \"not from owner\");\n        require (!lotteryNFT.getClaimStatus(_tokenId), \"claimed\");\n        uint256 reward = getRewardView(_tokenId);\n        lotteryNFT.claimReward(_tokenId);\n        if(reward>0) {\n            mkat.safeTransfer(address(msg.sender), reward);\n        }\n        emit Claim(msg.sender, _tokenId, reward);\n    }\n\n    function  multiClaim(uint256[] memory _tickets) external {\n        uint256 totalReward = 0;\n        for (uint i = 0; i < _tickets.length; i++) {\n            require (msg.sender == lotteryNFT.ownerOf(_tickets[i]), \"not from owner\");\n            require (!lotteryNFT.getClaimStatus(_tickets[i]), \"claimed\");\n            uint256 reward = getRewardView(_tickets[i]);\n            if(reward>0) {\n                totalReward = reward.add(totalReward);\n            }\n        }\n        lotteryNFT.multiClaimReward(_tickets);\n        if(totalReward>0) {\n            mkat.safeTransfer(address(msg.sender), totalReward);\n        }\n        emit MultiClaim(msg.sender, totalReward);\n    }\n\n    function generateNumberIndexKey(uint8[4] memory number) public pure returns (uint64[keyLengthForEachBuy] memory) {\n        uint64[4] memory tempNumber;\n        tempNumber[0]=uint64(number[0]);\n        tempNumber[1]=uint64(number[1]);\n        tempNumber[2]=uint64(number[2]);\n        tempNumber[3]=uint64(number[3]);\n\n        uint64[keyLengthForEachBuy] memory result;\n        result[0] = tempNumber[0]*256*256*256*256*256*256 + 1*256*256*256*256*256 + tempNumber[1]*256*256*256*256 + 2*256*256*256 + tempNumber[2]*256*256 + 3*256 + tempNumber[3];\n\n        result[1] = tempNumber[0]*256*256*256*256 + 1*256*256*256 + tempNumber[1]*256*256 + 2*256+ tempNumber[2];\n        result[2] = tempNumber[0]*256*256*256*256 + 1*256*256*256 + tempNumber[1]*256*256 + 3*256+ tempNumber[3];\n        result[3] = tempNumber[0]*256*256*256*256 + 2*256*256*256 + tempNumber[2]*256*256 + 3*256 + tempNumber[3];\n        result[4] = 1*256*256*256*256*256 + tempNumber[1]*256*256*256*256 + 2*256*256*256 + tempNumber[2]*256*256 + 3*256 + tempNumber[3];\n\n        result[5] = tempNumber[0]*256*256 + 1*256+ tempNumber[1];\n        result[6] = tempNumber[0]*256*256 + 2*256+ tempNumber[2];\n        result[7] = tempNumber[0]*256*256 + 3*256+ tempNumber[3];\n        result[8] = 1*256*256*256 + tempNumber[1]*256*256 + 2*256 + tempNumber[2];\n        result[9] = 1*256*256*256 + tempNumber[1]*256*256 + 3*256 + tempNumber[3];\n        result[10] = 2*256*256*256 + tempNumber[2]*256*256 + 3*256 + tempNumber[3];\n\n        return result;\n    }\n\n    function calculateMatchingRewardAmount() internal view returns (uint256[4] memory) {\n        uint64[keyLengthForEachBuy] memory numberIndexKey = generateNumberIndexKey(winningNumbers);\n\n        uint256 totalAmout1 = userBuyAmountSum[issueIndex][numberIndexKey[0]];\n\n        uint256 sumForTotalAmout2 = userBuyAmountSum[issueIndex][numberIndexKey[1]];\n        sumForTotalAmout2 = sumForTotalAmout2.add(userBuyAmountSum[issueIndex][numberIndexKey[2]]);\n        sumForTotalAmout2 = sumForTotalAmout2.add(userBuyAmountSum[issueIndex][numberIndexKey[3]]);\n        sumForTotalAmout2 = sumForTotalAmout2.add(userBuyAmountSum[issueIndex][numberIndexKey[4]]);\n\n        uint256 totalAmout2 = sumForTotalAmout2.sub(totalAmout1.mul(4));\n\n        uint256 sumForTotalAmout3 = userBuyAmountSum[issueIndex][numberIndexKey[5]];\n        sumForTotalAmout3 = sumForTotalAmout3.add(userBuyAmountSum[issueIndex][numberIndexKey[6]]);\n        sumForTotalAmout3 = sumForTotalAmout3.add(userBuyAmountSum[issueIndex][numberIndexKey[7]]);\n        sumForTotalAmout3 = sumForTotalAmout3.add(userBuyAmountSum[issueIndex][numberIndexKey[8]]);\n        sumForTotalAmout3 = sumForTotalAmout3.add(userBuyAmountSum[issueIndex][numberIndexKey[9]]);\n        sumForTotalAmout3 = sumForTotalAmout3.add(userBuyAmountSum[issueIndex][numberIndexKey[10]]);\n\n        uint256 totalAmout3 = sumForTotalAmout3.add(totalAmout1.mul(6)).sub(sumForTotalAmout2.mul(3));\n\n        return [totalAmount, totalAmout1, totalAmout2, totalAmout3];\n    }\n\n    function getMatchingRewardAmount(uint256 _issueIndex, uint256 _matchingNumber) public view returns (uint256) {\n        return historyAmount[_issueIndex][5 - _matchingNumber];\n    }\n\n    function getTotalRewards(uint256 _issueIndex) public view returns(uint256) {\n        require (_issueIndex <= issueIndex, '_issueIndex <= issueIndex');\n\n        if(!drawed() && _issueIndex == issueIndex) {\n            return totalAmount;\n        }\n        return historyAmount[_issueIndex][0];\n    }\n\n    function getRewardView(uint256 _tokenId) public view returns(uint256) {\n        uint256 _issueIndex = lotteryNFT.getLotteryIssueIndex(_tokenId);\n        uint8[4] memory lotteryNumbers = lotteryNFT.getLotteryNumbers(_tokenId);\n        uint8[4] memory _winningNumbers = historyNumbers[_issueIndex];\n        require(_winningNumbers[0] != 0, \"not drawed\");\n\n        uint256 matchingNumber = 0;\n        for (uint i = 0; i < lotteryNumbers.length; i++) {\n            if (_winningNumbers[i] == lotteryNumbers[i]) {\n                matchingNumber= matchingNumber +1;\n            }\n        }\n        uint256 reward = 0;\n        if (matchingNumber > 1) {\n            uint256 amount = lotteryNFT.getLotteryAmount(_tokenId);\n            uint256 poolAmount = getTotalRewards(_issueIndex).mul(allocation[4-matchingNumber]).div(100);\n            reward = amount.mul(1e12).div(getMatchingRewardAmount(_issueIndex, matchingNumber)).mul(poolAmount);\n        }\n        return reward.div(1e12);\n    }\n\n\n    // Update admin address by the previous dev.\n    function setAdmin(address _adminAddress) public onlyOwner {\n        adminAddress = _adminAddress;\n    }\n\n    // Update lotteryNFT contract address\n    function setLotteryNFT(LotteryNFT _lotteryNFT) public onlyOwner {\n        lotteryNFT = _lotteryNFT;\n    }\n\n    // Withdraw without caring about rewards. EMERGENCY ONLY.\n    function adminWithdraw(uint256 _amount) public onlyAdmin {\n        mkat.safeTransfer(address(msg.sender), _amount);\n        emit DevWithdraw(msg.sender, _amount);\n    }\n\n    // Set the minimum price for one ticket\n    function setMinPrice(uint256 _price) external onlyAdmin {\n        minPrice = _price;\n    }\n\n    // Set the minimum price for one ticket\n    function setMaxNumber(uint8 _maxNumber) external onlyAdmin {\n        maxNumber = _maxNumber;\n    }\n\n    // Set the allocation for one reward\n    function setAllocation(uint8 _allcation1, uint8 _allcation2, uint8 _allcation3) external onlyAdmin {\n        allocation = [_allcation1, _allcation2, _allcation3];\n    }\n\n}",
  "sourcePath": "E:/Task/blockchain/lottery/contracts/Lottery.sol",
  "compiler": {
    "name": "solc",
    "version": "0.6.12+commit.27d51765.Emscripten.clang"
  },
  "schemaVersion": "3.4.1",
  "updatedAt": "2021-06-28T13:52:53.362Z",
  "networkType": "ethereum",
  "devdoc": {
    "kind": "dev",
    "methods": {
      "owner()": {
        "details": "Returns the address of the current owner."
      },
      "renounceOwnership()": {
        "details": "Leaves the contract without owner. It will not be possible to call `onlyOwner` functions anymore. Can only be called by the current owner. NOTE: Renouncing ownership will leave the contract without an owner, thereby removing any functionality that is only available to the owner."
      },
      "transferOwnership(address)": {
        "details": "Transfers ownership of the contract to a new account (`newOwner`). Can only be called by the current owner."
      }
    },
    "version": 1
  },
  "userdoc": {
    "kind": "user",
    "methods": {},
    "version": 1
  }
}