{
  "contractName": "Mock_VRFCoordinator",
  "abi": [
    {
      "inputs": [
        {
          "internalType": "address",
          "name": "_linkToken",
          "type": "address"
        },
        {
          "internalType": "bytes32",
          "name": "_keyHash",
          "type": "bytes32"
        },
        {
          "internalType": "uint256",
          "name": "_fee",
          "type": "uint256"
        }
      ],
      "stateMutability": "nonpayable",
      "type": "constructor"
    },
    {
      "anonymous": false,
      "inputs": [
        {
          "indexed": true,
          "internalType": "address",
          "name": "sender",
          "type": "address"
        },
        {
          "indexed": true,
          "internalType": "bytes32",
          "name": "keyHash",
          "type": "bytes32"
        },
        {
          "indexed": true,
          "internalType": "uint256",
          "name": "seed",
          "type": "uint256"
        }
      ],
      "name": "RandomnessRequest",
      "type": "event"
    },
    {
      "inputs": [],
      "name": "LINK",
      "outputs": [
        {
          "internalType": "contract LinkTokenInterface",
          "name": "",
          "type": "address"
        }
      ],
      "stateMutability": "view",
      "type": "function"
    },
    {
      "inputs": [
        {
          "internalType": "bytes32",
          "name": "requestId",
          "type": "bytes32"
        },
        {
          "internalType": "uint256",
          "name": "randomness",
          "type": "uint256"
        },
        {
          "internalType": "address",
          "name": "consumerContract",
          "type": "address"
        }
      ],
      "name": "callBackWithRandomness",
      "outputs": [],
      "stateMutability": "nonpayable",
      "type": "function"
    },
    {
      "inputs": [],
      "name": "currentLotteryId",
      "outputs": [
        {
          "internalType": "uint256",
          "name": "",
          "type": "uint256"
        }
      ],
      "stateMutability": "view",
      "type": "function"
    },
    {
      "inputs": [
        {
          "internalType": "address",
          "name": "sender",
          "type": "address"
        },
        {
          "internalType": "uint256",
          "name": "fee",
          "type": "uint256"
        },
        {
          "internalType": "bytes",
          "name": "_data",
          "type": "bytes"
        }
      ],
      "name": "onTokenTransfer",
      "outputs": [],
      "stateMutability": "nonpayable",
      "type": "function"
    },
    {
      "inputs": [],
      "name": "randomResult",
      "outputs": [
        {
          "internalType": "uint256",
          "name": "",
          "type": "uint256"
        }
      ],
      "stateMutability": "view",
      "type": "function"
    }
  ],
  "bytecode": "0x608060405234801561001057600080fd5b506040516104613803806104618339818101604052606081101561003357600080fd5b5080516020820151604090920151600080546001600160a01b039093166001600160a01b0319909316929092179091556001919091556002556103e68061007b6000396000f3fe608060405234801561001057600080fd5b50600436106100575760003560e01c80631b6b6d231461005c57806342619f66146100805780636be4097c1461009a578063a4c0ed36146100a2578063cf55fe971461015f575b600080fd5b610064610191565b604080516001600160a01b039092168252519081900360200190f35b6100886101a0565b60408051918252519081900360200190f35b6100886101a6565b61015d600480360360608110156100b857600080fd5b6001600160a01b03823516916020810135918101906060810160408201356401000000008111156100e857600080fd5b8201836020820111156100fa57600080fd5b8035906020019184600183028401116401000000008311171561011c57600080fd5b91908080601f0160208091040260200160405190810160405280939291908181526020018383808284376000920191909152509295506101ac945050505050565b005b61015d6004803603606081101561017557600080fd5b50803590602081013590604001356001600160a01b0316610266565b6000546001600160a01b031681565b60045481565b60055481565b6000546001600160a01b03163314610201576040805162461bcd60e51b815260206004820152601360248201527226bab9ba103ab9b2902624a725903a37b5b2b760691b604482015290519081900360640190fd5b60008082806020019051604081101561021957600080fd5b5080516020909101516040519193509150819083906001600160a01b038816907f7a9a0a6960d95b32cded93c30e63e7c2eb9e877230813c172110ea54dc1c915c90600090a45050505050565b604080516024810185905260448082018590528251808303909101815260649091019091526020810180516001600160e01b03166394985ddd60e01b179052600090620324b0805a1015610301576040805162461bcd60e51b815260206004820152601b60248201527f6e6f7420656e6f7567682067617320666f7220636f6e73756d65720000000000604482015290519081900360640190fd5b6000846001600160a01b0316836040518082805190602001908083835b6020831061033d5780518252601f19909201916020918201910161031e565b6001836020036101000a0380198251168184511680821785525050505050509050019150506000604051808303816000865af19150503d806000811461039f576040519150601f19603f3d011682016040523d82523d6000602084013e6103a4565b606091505b5050505050505050505056fea264697066735822122037e7ced6b3282076340884fde100812ac5f12fbc91277bc590611cf38866968364736f6c634300060c0033",
  "immutableReferences": {},
  "source": "//SPDX-License-Identifier: MIT\npragma solidity ^0.6.0;\n\nimport \"@chainlink/contracts/src/v0.6/tests/VRFCoordinatorMock.sol\";\nimport \"./ILottery.sol\";\n\n/**\n * @dev THIS CONTRACT IS FOR TESTING PURPOSES ONLY.\n */\ncontract Mock_VRFCoordinator is VRFCoordinatorMock {\n    \n    bytes32 internal keyHash;\n    uint256 internal fee;\n    address internal requester;\n    uint256 public randomResult;\n    uint256 public currentLotteryId;\n    \n    constructor(\n        address _linkToken,\n        bytes32 _keyHash,\n        uint256 _fee\n    ) \n        VRFCoordinatorMock( \n            _linkToken  \n        ) public\n    {\n        keyHash = _keyHash;\n        fee = _fee; \n    }\n}",
  "sourcePath": "/workspace/ethereum/phoenixdefi/smart-contracts/lottery/contracts/Mock_VRFCoordinator.sol",
  "compiler": {
    "name": "solc",
    "version": "0.6.12+commit.27d51765.Emscripten.clang"
  },
  "schemaVersion": "3.3.4",
  "updatedAt": "2021-05-31T03:05:18.819Z",
  "devdoc": {
    "details": "THIS CONTRACT IS FOR TESTING PURPOSES ONLY.",
    "kind": "dev",
    "methods": {},
    "version": 1
  },
  "userdoc": {
    "kind": "user",
    "methods": {},
    "version": 1
  }
}