{
  "contractName": "RandomNumberGenerator",
  "abi": [
    {
      "inputs": [
        {
          "internalType": "address",
          "name": "_vrfCoordinator",
          "type": "address"
        },
        {
          "internalType": "address",
          "name": "_linkToken",
          "type": "address"
        },
        {
          "internalType": "address",
          "name": "_lottery",
          "type": "address"
        },
        {
          "internalType": "bytes32",
          "name": "_keyHash",
          "type": "bytes32"
        },
        {
          "internalType": "uint256",
          "name": "_fee",
          "type": "uint256"
        }
      ],
      "stateMutability": "nonpayable",
      "type": "constructor"
    },
    {
      "inputs": [],
      "name": "currentLotteryId",
      "outputs": [
        {
          "internalType": "uint256",
          "name": "",
          "type": "uint256"
        }
      ],
      "stateMutability": "view",
      "type": "function",
      "constant": true
    },
    {
      "inputs": [],
      "name": "lottery",
      "outputs": [
        {
          "internalType": "address",
          "name": "",
          "type": "address"
        }
      ],
      "stateMutability": "view",
      "type": "function",
      "constant": true
    },
    {
      "inputs": [],
      "name": "randomResult",
      "outputs": [
        {
          "internalType": "uint256",
          "name": "",
          "type": "uint256"
        }
      ],
      "stateMutability": "view",
      "type": "function",
      "constant": true
    },
    {
      "inputs": [
        {
          "internalType": "bytes32",
          "name": "requestId",
          "type": "bytes32"
        },
        {
          "internalType": "uint256",
          "name": "randomness",
          "type": "uint256"
        }
      ],
      "name": "rawFulfillRandomness",
      "outputs": [],
      "stateMutability": "nonpayable",
      "type": "function"
    },
    {
      "inputs": [
        {
          "internalType": "uint256",
          "name": "lotteryId",
          "type": "uint256"
        },
        {
          "internalType": "uint256",
          "name": "userProvidedSeed",
          "type": "uint256"
        }
      ],
      "name": "getRandomNumber",
      "outputs": [
        {
          "internalType": "bytes32",
          "name": "requestId",
          "type": "bytes32"
        }
      ],
      "stateMutability": "nonpayable",
      "type": "function"
    }
  ],
  "bytecode": "0x60c060405234801561001057600080fd5b50604051610762380380610762833981810160405260a081101561003357600080fd5b5080516020820151604083015160608085015160809586015185831b6001600160601b031990811660a0529285901b909216909552600194909455600293909355600680546001600160a01b0319166001600160a01b03948516179055821691166106a76100bb600039806102b8528061037a5250806101cf528061034b52506106a76000f3fe608060405234801561001057600080fd5b50600436106100575760003560e01c806342619f661461005c5780636be4097c146100765780636e68fc0a1461007e57806394985ddd146100a1578063ba13a572146100c6575b600080fd5b6100646100ea565b60408051918252519081900360200190f35b6100646100f0565b6100646004803603604081101561009457600080fd5b50803590602001356100f6565b6100c4600480360360408110156100b757600080fd5b50803590602001356102ad565b005b6100ce610338565b604080516001600160a01b039092168252519081900360200190f35b60045481565b60055481565b6006546000906001600160a01b03163314610158576040805162461bcd60e51b815260206004820152601e60248201527f4f6e6c79204c6f74746572792063616e2063616c6c2066756e6374696f6e0000604482015290519081900360640190fd5b6001546101ac576040805162461bcd60e51b815260206004820152601860248201527f4d75737420686176652076616c6964206b657920686173680000000000000000604482015290519081900360640190fd5b600254604080516370a0823160e01b815230600482015290516001600160a01b037f000000000000000000000000000000000000000000000000000000000000000016916370a08231916024808301926020929190829003018186803b15801561021557600080fd5b505afa158015610229573d6000803e3d6000fd5b505050506040513d602081101561023f57600080fd5b5051101561027e5760405162461bcd60e51b815260040180806020018281038252602b815260200180610647602b913960400191505060405180910390fd5b600380546001600160a01b0319163317905560058390556001546002546102a6919084610347565b9392505050565b336001600160a01b037f0000000000000000000000000000000000000000000000000000000000000000161461032a576040805162461bcd60e51b815260206004820152601f60248201527f4f6e6c7920565246436f6f7264696e61746f722063616e2066756c66696c6c00604482015290519081900360640190fd5b61033482826104fa565b5050565b6006546001600160a01b031681565b60007f00000000000000000000000000000000000000000000000000000000000000006001600160a01b0316634000aea07f000000000000000000000000000000000000000000000000000000000000000085878660405160200180838152602001828152602001925050506040516020818303038152906040526040518463ffffffff1660e01b815260040180846001600160a01b0316815260200183815260200180602001828103825283818151815260200191508051906020019080838360005b8381101561042357818101518382015260200161040b565b50505050905090810190601f1680156104505780820380516001836020036101000a031916815260200191505b50945050505050602060405180830381600087803b15801561047157600080fd5b505af1158015610485573d6000803e3d6000fd5b505050506040513d602081101561049b57600080fd5b50506000848152602081905260408120546104bb90869085903090610579565b6000868152602081905260409020549091506104d89060016105c0565b6000868152602081905260409020556104f1858261061a565b95945050505050565b600354600554604080516374bfe0b160e11b815260048101929092526024820185905260448201849052516001600160a01b039092169163e97fc1629160648082019260009290919082900301818387803b15801561055857600080fd5b505af115801561056c573d6000803e3d6000fd5b5050506004919091555050565b60408051602080820196909652808201949094526001600160a01b039290921660608401526080808401919091528151808403909101815260a09092019052805191012090565b6000828201838110156102a6576040805162461bcd60e51b815260206004820152601b60248201527f536166654d6174683a206164646974696f6e206f766572666c6f770000000000604482015290519081900360640190fd5b60408051602080820194909452808201929092528051808303820181526060909201905280519101209056fe4e6f7420656e6f756768204c494e4b202d2066696c6c20636f6e7472616374207769746820666175636574a2646970667358221220291f37fb43eb065ec052b0099a1bb53fd90c2cb476c0686dc4aa959780ccb1f264736f6c634300060c0033",
  "immutableReferences": {
    "2711": [
      {
        "length": 32,
        "start": 463
      },
      {
        "length": 32,
        "start": 843
      }
    ],
    "2713": [
      {
        "length": 32,
        "start": 696
      },
      {
        "length": 32,
        "start": 890
      }
    ]
  },
  "source": "//SPDX-License-Identifier: MIT\npragma solidity 0.6.12;\n\nimport \"@chainlink/contracts/src/v0.6/VRFConsumerBase.sol\";\nimport \"./ILottery.sol\";\n\ncontract RandomNumberGenerator is VRFConsumerBase {\n    \n    bytes32 internal keyHash;\n    uint256 internal fee;\n    address internal requester;\n    uint256 public randomResult;\n    uint256 public currentLotteryId;\n\n    address public lottery;\n    \n    modifier onlyLottery() {\n        require(\n            msg.sender == lottery,\n            \"Only Lottery can call function\"\n        );\n        _;\n    }\n\n    constructor(\n        address _vrfCoordinator,\n        address _linkToken,\n        address _lottery,\n        bytes32 _keyHash,\n        uint256 _fee\n    ) \n        VRFConsumerBase(\n            _vrfCoordinator, \n            _linkToken  \n        ) public\n    {\n        keyHash = _keyHash;\n        fee = _fee; \n        lottery = _lottery;\n    }\n    \n    /** \n     * Requests randomness from a user-provided seed\n     */\n    function getRandomNumber(\n        uint256 lotteryId,\n        uint256 userProvidedSeed\n    ) \n        public \n        onlyLottery()\n        returns (bytes32 requestId) \n    {\n        require(keyHash != bytes32(0), \"Must have valid key hash\");\n        require(\n            LINK.balanceOf(address(this)) >= fee, \n            \"Not enough LINK - fill contract with faucet\"\n        );\n        requester = msg.sender;\n        currentLotteryId = lotteryId;\n        return requestRandomness(keyHash, fee, userProvidedSeed);\n    }\n\n    /**\n     * Callback function used by VRF Coordinator\n     */\n    function fulfillRandomness(bytes32 requestId, uint256 randomness) internal override {\n        ILottery(requester).numbersDrawn(\n            currentLotteryId,\n            requestId,\n            randomness\n        );\n        randomResult = randomness;\n    }\n}",
  "sourcePath": "/workspace/ethereum/phoenixdefi/smart-contracts/lottery/contracts/RandomNumberGenerator.sol",
  "compiler": {
    "name": "solc",
    "version": "0.6.12+commit.27d51765.Emscripten.clang"
  },
  "schemaVersion": "3.3.4",
  "updatedAt": "2021-06-01T01:54:35.351Z",
  "networkType": "ethereum",
  "devdoc": {
    "kind": "dev",
    "methods": {},
    "version": 1
  },
  "userdoc": {
    "kind": "user",
    "methods": {
      "getRandomNumber(uint256,uint256)": {
        "notice": "Requests randomness from a user-provided seed"
      }
    },
    "version": 1
  }
}