{
  "contractName": "Timer",
  "abi": [
    {
      "inputs": [],
      "stateMutability": "nonpayable",
      "type": "constructor"
    },
    {
      "inputs": [
        {
          "internalType": "uint256",
          "name": "time",
          "type": "uint256"
        }
      ],
      "name": "setCurrentTime",
      "outputs": [],
      "stateMutability": "nonpayable",
      "type": "function"
    },
    {
      "inputs": [],
      "name": "getCurrentTime",
      "outputs": [
        {
          "internalType": "uint256",
          "name": "",
          "type": "uint256"
        }
      ],
      "stateMutability": "view",
      "type": "function",
      "constant": true
    }
  ],
  "bytecode": "0x608060405234801561001057600080fd5b504260005560ac806100236000396000f3fe6080604052348015600f57600080fd5b506004361060325760003560e01c806322f8e56614603757806329cb924d146053575b600080fd5b605160048036036020811015604b57600080fd5b5035606b565b005b60596070565b60408051918252519081900360200190f35b600055565b6000549056fea26469706673582212203b5276ed3dc412372fe66cd250f16074055f19fbff8a96cd1518e8ef038c52b264736f6c634300060c0033",
  "immutableReferences": {},
  "source": "// SPDX-License-Identifier: MIT\npragma solidity >= 0.6.0 < 0.8.0;\n\n/**\n * @title Universal store of current contract time for testing environments.\n */\ncontract Timer {\n    uint256 private currentTime;\n\n    constructor() public {\n        currentTime = block.timestamp; \n    }\n\n    /**\n     * @notice Sets the current time.\n     * @dev Will revert if not running in test mode.\n     * @param time timestamp to set `currentTime` to.\n     */\n    function setCurrentTime(uint256 time) external {\n        currentTime = time;\n    }\n\n    /**\n     * @notice Gets the current time. Will return the last time set in `setCurrentTime` if running in test mode.\n     * Otherwise, it will return the block timestamp.\n     * @return uint256 for the current Testable timestamp.\n     */\n    function getCurrentTime() public view returns (uint256) {\n        return currentTime;\n    }\n}",
  "sourcePath": "/workspace/ethereum/phoenixdefi/smart-contracts/lottery/contracts/Timer.sol",
  "compiler": {
    "name": "solc",
    "version": "0.6.12+commit.27d51765.Emscripten.clang"
  },
  "schemaVersion": "3.3.4",
  "updatedAt": "2021-06-01T01:54:35.299Z",
  "networkType": "ethereum",
  "devdoc": {
    "kind": "dev",
    "methods": {
      "getCurrentTime()": {
        "returns": {
          "_0": "uint256 for the current Testable timestamp."
        }
      },
      "setCurrentTime(uint256)": {
        "details": "Will revert if not running in test mode.",
        "params": {
          "time": "timestamp to set `currentTime` to."
        }
      }
    },
    "title": "Universal store of current contract time for testing environments.",
    "version": 1
  },
  "userdoc": {
    "kind": "user",
    "methods": {
      "getCurrentTime()": {
        "notice": "Gets the current time. Will return the last time set in `setCurrentTime` if running in test mode. Otherwise, it will return the block timestamp."
      },
      "setCurrentTime(uint256)": {
        "notice": "Sets the current time."
      }
    },
    "version": 1
  }
}