{
  "contractName": "VRFCoordinatorMock",
  "abi": [
    {
      "inputs": [
        {
          "internalType": "address",
          "name": "linkAddress",
          "type": "address"
        }
      ],
      "stateMutability": "nonpayable",
      "type": "constructor"
    },
    {
      "anonymous": false,
      "inputs": [
        {
          "indexed": true,
          "internalType": "address",
          "name": "sender",
          "type": "address"
        },
        {
          "indexed": true,
          "internalType": "bytes32",
          "name": "keyHash",
          "type": "bytes32"
        },
        {
          "indexed": true,
          "internalType": "uint256",
          "name": "seed",
          "type": "uint256"
        }
      ],
      "name": "RandomnessRequest",
      "type": "event"
    },
    {
      "inputs": [],
      "name": "LINK",
      "outputs": [
        {
          "internalType": "contract LinkTokenInterface",
          "name": "",
          "type": "address"
        }
      ],
      "stateMutability": "view",
      "type": "function"
    },
    {
      "inputs": [
        {
          "internalType": "address",
          "name": "sender",
          "type": "address"
        },
        {
          "internalType": "uint256",
          "name": "fee",
          "type": "uint256"
        },
        {
          "internalType": "bytes",
          "name": "_data",
          "type": "bytes"
        }
      ],
      "name": "onTokenTransfer",
      "outputs": [],
      "stateMutability": "nonpayable",
      "type": "function"
    },
    {
      "inputs": [
        {
          "internalType": "bytes32",
          "name": "requestId",
          "type": "bytes32"
        },
        {
          "internalType": "uint256",
          "name": "randomness",
          "type": "uint256"
        },
        {
          "internalType": "address",
          "name": "consumerContract",
          "type": "address"
        }
      ],
      "name": "callBackWithRandomness",
      "outputs": [],
      "stateMutability": "nonpayable",
      "type": "function"
    }
  ],
  "bytecode": "0x608060405234801561001057600080fd5b506040516104073803806104078339818101604052602081101561003357600080fd5b5051600080546001600160a01b039092166001600160a01b03199092169190911790556103a2806100656000396000f3fe608060405234801561001057600080fd5b50600436106100415760003560e01c80631b6b6d2314610046578063a4c0ed361461006a578063cf55fe9714610127575b600080fd5b61004e610159565b604080516001600160a01b039092168252519081900360200190f35b6101256004803603606081101561008057600080fd5b6001600160a01b03823516916020810135918101906060810160408201356401000000008111156100b057600080fd5b8201836020820111156100c257600080fd5b803590602001918460018302840111640100000000831117156100e457600080fd5b91908080601f016020809104026020016040519081016040528093929190818152602001838380828437600092019190915250929550610168945050505050565b005b6101256004803603606081101561013d57600080fd5b50803590602081013590604001356001600160a01b0316610222565b6000546001600160a01b031681565b6000546001600160a01b031633146101bd576040805162461bcd60e51b815260206004820152601360248201527226bab9ba103ab9b2902624a725903a37b5b2b760691b604482015290519081900360640190fd5b6000808280602001905160408110156101d557600080fd5b5080516020909101516040519193509150819083906001600160a01b038816907f7a9a0a6960d95b32cded93c30e63e7c2eb9e877230813c172110ea54dc1c915c90600090a45050505050565b604080516024810185905260448082018590528251808303909101815260649091019091526020810180516001600160e01b03166394985ddd60e01b179052600090620324b0805a10156102bd576040805162461bcd60e51b815260206004820152601b60248201527f6e6f7420656e6f7567682067617320666f7220636f6e73756d65720000000000604482015290519081900360640190fd5b6000846001600160a01b0316836040518082805190602001908083835b602083106102f95780518252601f1990920191602091820191016102da565b6001836020036101000a0380198251168184511680821785525050505050509050019150506000604051808303816000865af19150503d806000811461035b576040519150601f19603f3d011682016040523d82523d6000602084013e610360565b606091505b5050505050505050505056fea2646970667358221220183234c45d3d92e1fe13dcbe3edae6f2c40602204adf50d891e67e224981cabe64736f6c634300060c0033",
  "immutableReferences": {},
  "source": "// SPDX-License-Identifier: MIT\npragma solidity 0.6.12;\n\nimport \"../interfaces/LinkTokenInterface.sol\";\nimport \"../VRFConsumerBase.sol\";\n\ncontract VRFCoordinatorMock {\n\n    LinkTokenInterface public LINK;\n\n    event RandomnessRequest(address indexed sender, bytes32 indexed keyHash, uint256 indexed seed);\n\n    constructor(address linkAddress) public {\n        LINK = LinkTokenInterface(linkAddress);\n    }\n\n    function onTokenTransfer(address sender, uint256 fee, bytes memory _data)\n        public\n        onlyLINK\n    {\n        (bytes32 keyHash, uint256 seed) = abi.decode(_data, (bytes32, uint256));\n        emit RandomnessRequest(sender, keyHash, seed);\n    }\n\n    function callBackWithRandomness(\n        bytes32 requestId,\n        uint256 randomness,\n        address consumerContract\n    ) public {\n        VRFConsumerBase v;\n        bytes memory resp = abi.encodeWithSelector(v.rawFulfillRandomness.selector, requestId, randomness);\n        uint256 b = 206000;\n        require(gasleft() >= b, \"not enough gas for consumer\");\n        (bool success,) = consumerContract.call(resp);\n    }\n\n    modifier onlyLINK() {\n        require(msg.sender == address(LINK), \"Must use LINK token\");\n        _;\n    }\n}",
  "sourcePath": "@chainlink/contracts/src/v0.6/tests/VRFCoordinatorMock.sol",
  "compiler": {
    "name": "solc",
    "version": "0.6.12+commit.27d51765.Emscripten.clang"
  },
  "schemaVersion": "3.3.4",
  "updatedAt": "2021-05-31T03:05:18.914Z",
  "devdoc": {
    "kind": "dev",
    "methods": {},
    "version": 1
  },
  "userdoc": {
    "kind": "user",
    "methods": {},
    "version": 1
  }
}